{
  "transactions": [
    {
      "hash": null,
      "transactionType": "CREATE",
      "contractName": "FinanceSystem",
      "contractAddress": "0x34b40ba116d5dec75548a9e9a8f15411461e8c70",
      "function": null,
      "arguments": [
        "MyOrg",
        "0xf39Fd6e51aad88F6F4ce6aB8827279cffFb92266"
      ],
      "transaction": {
        "from": "0xf39fd6e51aad88f6f4ce6ab8827279cfffb92266",
        "gas": "0x13fd5d",
        "value": "0x0",
        "input": "0x60a060405234801561001057600080fd5b5060405161137938038061137983398101604081905261002f91610082565b6001600160a01b038116608052600061004883826101e8565b5050506102a6565b634e487b7160e01b600052604160045260246000fd5b80516001600160a01b038116811461007d57600080fd5b919050565b6000806040838503121561009557600080fd5b82516001600160401b038111156100ab57600080fd5b8301601f810185136100bc57600080fd5b80516001600160401b038111156100d5576100d5610050565b604051601f8201601f19908116603f011681016001600160401b038111828210171561010357610103610050565b60405281815282820160200187101561011b57600080fd5b60005b8281101561013a5760208185018101518383018201520161011e565b5060006020838301015280945050505061015660208401610066565b90509250929050565b600181811c9082168061017357607f821691505b60208210810361019357634e487b7160e01b600052602260045260246000fd5b50919050565b601f8211156101e357806000526020600020601f840160051c810160208510156101c05750805b601f840160051c820191505b818110156101e057600081556001016101cc565b50505b505050565b81516001600160401b0381111561020157610201610050565b6102158161020f845461015f565b84610199565b6020601f82116001811461024957600083156102315750848201515b600019600385901b1c1916600184901b1784556101e0565b600084815260208120601f198516915b828110156102795787850151825560209485019460019092019101610259565b50848210156102975786840151600019600387901b60f8161c191681555b50505050600190811b01905550565b6080516110aa6102cf6000396000818161068c0152818161076e015261093201526110aa6000f3fe608060405234801561001057600080fd5b506004361061007c5760003560e01c8063c4740a951161005b578063c4740a95146100c9578063c5d0cedb146100dc578063e89b0e1e146100ef578063f02e4b041461010257600080fd5b8062793d361461008157806353d2147b1461009657806383920e90146100b4575b600080fd5b61009461008f366004610c0c565b610117565b005b61009e610388565b6040516100ab9190610d2f565b60405180910390f35b6100bc610538565b6040516100ab9190610d49565b6100946100d7366004610dae565b610681565b6100946100ea366004610dc9565b610763565b6100946100fd366004610dae565b610927565b61010a6109d3565b6040516100ab9190610e4c565b610125565b60405180910390fd5b600084116101755760405162461bcd60e51b815260206004820152601d60248201527f416d6f756e74206d7573742062652067726561746572207468616e2030000000604482015260640161011c565b6001600160a01b0382166101cb5760405162461bcd60e51b815260206004820152601f60248201527f526563697069656e742061646472657373206d7573742062652076616c696400604482015260640161011c565b6000826001600160a01b03168560405160006040518083038185875af1925050503d8060008114610218576040519150601f19603f3d011682016040523d82523d6000602084013e61021d565b606091505b50509050806102605760405162461bcd60e51b815260206004820152600f60248201526e151c985b9cd9995c8819985a5b1959608a1b604482015260640161011c565b6040805160e081018252868152602081018681526001600160a01b03861692820192909252336060820181905284151560808301524260a08301523160c082015260038054600181018255600091909152815160069091027fc2575a0e9e593c00f959f8c92f12db2869c3395a3b0502d05e2516446f71f85b81019182559251919283927fc2575a0e9e593c00f959f8c92f12db2869c3395a3b0502d05e2516446f71f85c909101906103139082610f21565b5060408201516002820180546001600160a01b0319166001600160a01b0392831617905560608301516003830180546080860151929093166001600160a81b031990931692909217600160a01b9115159190910217905560a0820151600482015560c090910151600590910155505050505050565b6103dc6040518060e00160405280600081526020016060815260200160006001600160a01b0316815260200160006001600160a01b0316815260200160001515815260200160008152602001600081525090565b6003546104225760405162461bcd60e51b815260206004820152601460248201527308139bc81d1c985b9cd858dd1a5bdb9cc81e595d60621b604482015260640161011c565b600360008154811061043657610436610fe0565b90600052602060002090600602016040518060e00160405290816000820154815260200160018201805461046990610e98565b80601f016020809104026020016040519081016040528092919081815260200182805461049590610e98565b80156104e25780601f106104b7576101008083540402835291602001916104e2565b820191906000526020600020905b8154815290600101906020018083116104c557829003601f168201915b505050918352505060028201546001600160a01b03908116602083015260038301549081166040830152600160a01b900460ff16151560608201526004820154608082015260059091015460a090910152919050565b60606003805480602002602001604051908101604052809291908181526020016000905b8282101561067857838290600052602060002090600602016040518060e00160405290816000820154815260200160018201805461059990610e98565b80601f01602080910402602001604051908101604052809291908181526020018280546105c590610e98565b80156106125780601f106105e757610100808354040283529160200191610612565b820191906000526020600020905b8154815290600101906020018083116105f557829003601f168201915b505050918352505060028201546001600160a01b0390811660208084019190915260038401549182166040840152600160a01b90910460ff16151560608301526004830154608083015260059092015460a090910152908252600192909201910161055c565b50505050905090565b336001600160a01b037f000000000000000000000000000000000000000000000000000000000000000016146106c95760405162461bcd60e51b815260040161011c90610ff6565b6001600160a01b03811660009081526001602081905260409091205460ff161515146107375760405162461bcd60e51b815260206004820152601c60248201527f204163636f756e74206469646e27742068617665206163636573732000000000604482015260640161011c565b6001600160a01b0381166000908152600160205260409020805460ff1916905561076081610a35565b50565b336001600160a01b037f000000000000000000000000000000000000000000000000000000000000000016146107ab5760405162461bcd60e51b815260040161011c90610ff6565b600086116107fb5760405162461bcd60e51b815260206004820152601d60248201527f416d6f756e74206d7573742062652067726561746572207468616e2030000000604482015260640161011c565b6040805160e081018252878152602081018781526001600160a01b03808816938301939093529185166060820152831515608082015260a08101839052333160c082015260038054600181018255600091909152815160069091027fc2575a0e9e593c00f959f8c92f12db2869c3395a3b0502d05e2516446f71f85b81019182559251919283927fc2575a0e9e593c00f959f8c92f12db2869c3395a3b0502d05e2516446f71f85c909101906108b19082610f21565b5060408201516002820180546001600160a01b0319166001600160a01b0392831617905560608301516003830180546080860151929093166001600160a81b031990931692909217600160a01b9115159190910217905560a0820151600482015560c09091015160059091015550505050505050565b336001600160a01b037f0000000000000000000000000000000000000000000000000000000000000000161461096f5760405162461bcd60e51b815260040161011c90610ff6565b6001600160a01b031660008181526001602081905260408220805460ff1916821790556002805491820181559091527f405787fa12a823e0f2b7631cc41b3ba8828b3321ca811111fa75cd3aa3bb5ace0180546001600160a01b0319169091179055565b60606002805480602002602001604051908101604052809291908181526020018280548015610a2b57602002820191906000526020600020905b81546001600160a01b03168152600190910190602001808311610a0d575b5050505050905090565b600254600090610a4790600190611037565b905060005b600254811015610b0357826001600160a01b031660028281548110610a7357610a73610fe0565b6000918252602090912001546001600160a01b031603610afb5760028281548110610aa057610aa0610fe0565b600091825260209091200154600280546001600160a01b039092169183908110610acc57610acc610fe0565b9060005260206000200160006101000a8154816001600160a01b0302191690836001600160a01b031602179055505b600101610a4c565b506002805480610b1557610b1561105e565b600082815260209020810160001990810180546001600160a01b03191690550190555050565b634e487b7160e01b600052604160045260246000fd5b600082601f830112610b6257600080fd5b813567ffffffffffffffff811115610b7c57610b7c610b3b565b604051601f8201601f19908116603f0116810167ffffffffffffffff81118282101715610bab57610bab610b3b565b604052818152838201602001851015610bc357600080fd5b816020850160208301376000918101602001919091529392505050565b80356001600160a01b0381168114610bf757600080fd5b919050565b80358015158114610bf757600080fd5b60008060008060808587031215610c2257600080fd5b84359350602085013567ffffffffffffffff811115610c4057600080fd5b610c4c87828801610b51565b935050610c5b60408601610be0565b9150610c6960608601610bfc565b905092959194509250565b805182526000602082015160e0602085015280518060e086015260005b81811015610caf576020818401810151610100888401015201610c91565b506000610100828701015260408401519150610cd660408601836001600160a01b03169052565b60608401519150610cf260608601836001600160a01b03169052565b60808401519150610d07608086018315159052565b60a0848101519086015260c093840151938501939093525050601f01601f1916016101000190565b602081526000610d426020830184610c74565b9392505050565b6000602082016020835280845180835260408501915060408160051b86010192506020860160005b82811015610da257603f19878603018452610d8d858351610c74565b94506020938401939190910190600101610d71565b50929695505050505050565b600060208284031215610dc057600080fd5b610d4282610be0565b60008060008060008060c08789031215610de257600080fd5b86359550602087013567ffffffffffffffff811115610e0057600080fd5b610e0c89828a01610b51565b955050610e1b60408801610be0565b9350610e2960608801610be0565b9250610e3760808801610bfc565b9598949750929591949360a090920135925050565b602080825282518282018190526000918401906040840190835b81811015610e8d5783516001600160a01b0316835260209384019390920191600101610e66565b509095945050505050565b600181811c90821680610eac57607f821691505b602082108103610ecc57634e487b7160e01b600052602260045260246000fd5b50919050565b601f821115610f1c57806000526020600020601f840160051c81016020851015610ef95750805b601f840160051c820191505b81811015610f195760008155600101610f05565b50505b505050565b815167ffffffffffffffff811115610f3b57610f3b610b3b565b610f4f81610f498454610e98565b84610ed2565b6020601f821160018114610f835760008315610f6b5750848201515b600019600385901b1c1916600184901b178455610f19565b600084815260208120601f198516915b82811015610fb35787850151825560209485019460019092019101610f93565b5084821015610fd15786840151600019600387901b60f8161c191681555b50505050600190811b01905550565b634e487b7160e01b600052603260045260246000fd5b60208082526021908201527f4f6e6c79206f776e65722063616e2063616c6c20746869732066756e6374696f6040820152603760f91b606082015260800190565b8181038181111561105857634e487b7160e01b600052601160045260246000fd5b92915050565b634e487b7160e01b600052603160045260246000fdfea2646970667358221220c6ea872d4db042097664ffabf8f357d6b61e820bb7d9a83a18898fa60adae10864736f6c634300081c00330000000000000000000000000000000000000000000000000000000000000040000000000000000000000000f39fd6e51aad88f6f4ce6ab8827279cfffb9226600000000000000000000000000000000000000000000000000000000000000054d794f7267000000000000000000000000000000000000000000000000000000",
        "nonce": "0x6d",
        "chainId": "0x221"
      },
      "additionalContracts": [],
      "isFixedGasLimit": false
    },
    {
      "hash": null,
      "transactionType": "CALL",
      "contractName": "FinanceSystem",
      "contractAddress": "0x34b40ba116d5dec75548a9e9a8f15411461e8c70",
      "function": "addAccount(address)",
      "arguments": [
        "0x1234567890AbcdEF1234567890aBcdef12345678"
      ],
      "transaction": {
        "from": "0xf39fd6e51aad88f6f4ce6ab8827279cfffb92266",
        "to": "0x34b40ba116d5dec75548a9e9a8f15411461e8c70",
        "gas": "0x1dc6c",
        "value": "0x0",
        "input": "0xe89b0e1e0000000000000000000000001234567890abcdef1234567890abcdef12345678",
        "nonce": "0x6e",
        "chainId": "0x221"
      },
      "additionalContracts": [],
      "isFixedGasLimit": false
    },
    {
      "hash": null,
      "transactionType": "CALL",
      "contractName": "FinanceSystem",
      "contractAddress": "0x34b40ba116d5dec75548a9e9a8f15411461e8c70",
      "function": "addAccount(address)",
      "arguments": [
        "0x9876543210FeDcba9876543210FEdCba98765432"
      ],
      "transaction": {
        "from": "0xf39fd6e51aad88f6f4ce6ab8827279cfffb92266",
        "to": "0x34b40ba116d5dec75548a9e9a8f15411461e8c70",
        "gas": "0x196c3",
        "value": "0x0",
        "input": "0xe89b0e1e0000000000000000000000009876543210fedcba9876543210fedcba98765432",
        "nonce": "0x6f",
        "chainId": "0x221"
      },
      "additionalContracts": [],
      "isFixedGasLimit": false
    },
    {
      "hash": null,
      "transactionType": "CALL",
      "contractName": "FinanceSystem",
      "contractAddress": "0x34b40ba116d5dec75548a9e9a8f15411461e8c70",
      "function": "addAccount(address)",
      "arguments": [
        "0xdEF1234567890AbcdEF1234567890aBcdEF12345"
      ],
      "transaction": {
        "from": "0xf39fd6e51aad88f6f4ce6ab8827279cfffb92266",
        "to": "0x34b40ba116d5dec75548a9e9a8f15411461e8c70",
        "gas": "0x196c3",
        "value": "0x0",
        "input": "0xe89b0e1e000000000000000000000000def1234567890abcdef1234567890abcdef12345",
        "nonce": "0x70",
        "chainId": "0x221"
      },
      "additionalContracts": [],
      "isFixedGasLimit": false
    },
    {
      "hash": null,
      "transactionType": "CALL",
      "contractName": "FinanceSystem",
      "contractAddress": "0x34b40ba116d5dec75548a9e9a8f15411461e8c70",
      "function": "addAccount(address)",
      "arguments": [
        "0xabCDEF1234567890ABcDEF1234567890aBCDeF12"
      ],
      "transaction": {
        "from": "0xf39fd6e51aad88f6f4ce6ab8827279cfffb92266",
        "to": "0x34b40ba116d5dec75548a9e9a8f15411461e8c70",
        "gas": "0x196c3",
        "value": "0x0",
        "input": "0xe89b0e1e000000000000000000000000abcdef1234567890abcdef1234567890abcdef12",
        "nonce": "0x71",
        "chainId": "0x221"
      },
      "additionalContracts": [],
      "isFixedGasLimit": false
    },
    {
      "hash": null,
      "transactionType": "CALL",
      "contractName": "FinanceSystem",
      "contractAddress": "0x34b40ba116d5dec75548a9e9a8f15411461e8c70",
      "function": "addAccount(address)",
      "arguments": [
        "0xfEdcBA9876543210FedCBa9876543210fEdCBa98"
      ],
      "transaction": {
        "from": "0xf39fd6e51aad88f6f4ce6ab8827279cfffb92266",
        "to": "0x34b40ba116d5dec75548a9e9a8f15411461e8c70",
        "gas": "0x196c3",
        "value": "0x0",
        "input": "0xe89b0e1e000000000000000000000000fedcba9876543210fedcba9876543210fedcba98",
        "nonce": "0x72",
        "chainId": "0x221"
      },
      "additionalContracts": [],
      "isFixedGasLimit": false
    },
    {
      "hash": null,
      "transactionType": "CALL",
      "contractName": "FinanceSystem",
      "contractAddress": "0x34b40ba116d5dec75548a9e9a8f15411461e8c70",
      "function": "addAccount(address)",
      "arguments": [
        "0xf39Fd6e51aad88F6F4ce6aB8827279cffFb92266"
      ],
      "transaction": {
        "from": "0xf39fd6e51aad88f6f4ce6ab8827279cfffb92266",
        "to": "0x34b40ba116d5dec75548a9e9a8f15411461e8c70",
        "gas": "0x196c3",
        "value": "0x0",
        "input": "0xe89b0e1e000000000000000000000000f39fd6e51aad88f6f4ce6ab8827279cfffb92266",
        "nonce": "0x73",
        "chainId": "0x221"
      },
      "additionalContracts": [],
      "isFixedGasLimit": false
    },
    {
      "hash": null,
      "transactionType": "CALL",
      "contractName": "FinanceSystem",
      "contractAddress": "0x34b40ba116d5dec75548a9e9a8f15411461e8c70",
      "function": "addTransaction(uint256,string,address,address,bool,uint256)",
      "arguments": [
        "1000",
        "Subscription Service Payment",
        "0xfEdcBA9876543210FedCBa9876543210fEdCBa98",
        "0x1234567890AbcdEF1234567890aBcdef12345678",
        "false",
        "1704067200"
      ],
      "transaction": {
        "from": "0xf39fd6e51aad88f6f4ce6ab8827279cfffb92266",
        "to": "0x34b40ba116d5dec75548a9e9a8f15411461e8c70",
        "gas": "0x3c9a8",
        "value": "0x0",
        "input": "0xc5d0cedb00000000000000000000000000000000000000000000000000000000000003e800000000000000000000000000000000000000000000000000000000000000c0000000000000000000000000fedcba9876543210fedcba9876543210fedcba980000000000000000000000001234567890abcdef1234567890abcdef1234567800000000000000000000000000000000000000000000000000000000000000000000000000000000000000000000000000000000000000000000000065920080000000000000000000000000000000000000000000000000000000000000001c537562736372697074696f6e2053657276696365205061796d656e7400000000",
        "nonce": "0x74",
        "chainId": "0x221"
      },
      "additionalContracts": [],
      "isFixedGasLimit": false
    },
    {
      "hash": null,
      "transactionType": "CALL",
      "contractName": "FinanceSystem",
      "contractAddress": "0x34b40ba116d5dec75548a9e9a8f15411461e8c70",
      "function": "addTransaction(uint256,string,address,address,bool,uint256)",
      "arguments": [
        "750",
        "Office Rent",
        "0x876543210AbcdeF9876543210abCdeF987654321",
        "0x9876543210FeDcba9876543210FEdCba98765432",
        "false",
        "1706745600"
      ],
      "transaction": {
        "from": "0xf39fd6e51aad88f6f4ce6ab8827279cfffb92266",
        "to": "0x34b40ba116d5dec75548a9e9a8f15411461e8c70",
        "gas": "0x36c4a",
        "value": "0x0",
        "input": "0xc5d0cedb00000000000000000000000000000000000000000000000000000000000002ee00000000000000000000000000000000000000000000000000000000000000c0000000000000000000000000876543210abcdef9876543210abcdef9876543210000000000000000000000009876543210fedcba9876543210fedcba9876543200000000000000000000000000000000000000000000000000000000000000000000000000000000000000000000000000000000000000000000000065badf00000000000000000000000000000000000000000000000000000000000000000b4f66666963652052656e74000000000000000000000000000000000000000000",
        "nonce": "0x75",
        "chainId": "0x221"
      },
      "additionalContracts": [],
      "isFixedGasLimit": false
    },
    {
      "hash": null,
      "transactionType": "CALL",
      "contractName": "FinanceSystem",
      "contractAddress": "0x34b40ba116d5dec75548a9e9a8f15411461e8c70",
      "function": "addTransaction(uint256,string,address,address,bool,uint256)",
      "arguments": [
        "2000",
        "Client Payment Received",
        "0x1234567890AbcdEF1234567890aBcdef12345678",
        "0xdEF1234567890AbcdEF1234567890aBcdEF12345",
        "true",
        "1709251200"
      ],
      "transaction": {
        "from": "0xf39fd6e51aad88f6f4ce6ab8827279cfffb92266",
        "to": "0x34b40ba116d5dec75548a9e9a8f15411461e8c70",
        "gas": "0x36d33",
        "value": "0x0",
        "input": "0xc5d0cedb00000000000000000000000000000000000000000000000000000000000007d000000000000000000000000000000000000000000000000000000000000000c00000000000000000000000001234567890abcdef1234567890abcdef12345678000000000000000000000000def1234567890abcdef1234567890abcdef1234500000000000000000000000000000000000000000000000000000000000000010000000000000000000000000000000000000000000000000000000065e11a800000000000000000000000000000000000000000000000000000000000000017436c69656e74205061796d656e74205265636569766564000000000000000000",
        "nonce": "0x76",
        "chainId": "0x221"
      },
      "additionalContracts": [],
      "isFixedGasLimit": false
    },
    {
      "hash": null,
      "transactionType": "CALL",
      "contractName": "FinanceSystem",
      "contractAddress": "0x34b40ba116d5dec75548a9e9a8f15411461e8c70",
      "function": "addTransaction(uint256,string,address,address,bool,uint256)",
      "arguments": [
        "1500",
        "Payment for Services",
        "0xabCDEF1234567890ABcDEF1234567890aBCDeF12",
        "0x9876543210FeDcba9876543210FEdCba98765432",
        "true",
        "1711929600"
      ],
      "transaction": {
        "from": "0xf39fd6e51aad88f6f4ce6ab8827279cfffb92266",
        "to": "0x34b40ba116d5dec75548a9e9a8f15411461e8c70",
        "gas": "0x36cf1",
        "value": "0x0",
        "input": "0xc5d0cedb00000000000000000000000000000000000000000000000000000000000005dc00000000000000000000000000000000000000000000000000000000000000c0000000000000000000000000abcdef1234567890abcdef1234567890abcdef120000000000000000000000009876543210fedcba9876543210fedcba987654320000000000000000000000000000000000000000000000000000000000000001000000000000000000000000000000000000000000000000000000006609f90000000000000000000000000000000000000000000000000000000000000000145061796d656e7420666f72205365727669636573000000000000000000000000",
        "nonce": "0x77",
        "chainId": "0x221"
      },
      "additionalContracts": [],
      "isFixedGasLimit": false
    },
    {
      "hash": null,
      "transactionType": "CALL",
      "contractName": "FinanceSystem",
      "contractAddress": "0x34b40ba116d5dec75548a9e9a8f15411461e8c70",
      "function": "addTransaction(uint256,string,address,address,bool,uint256)",
      "arguments": [
        "1200",
        "Freelancer Payment",
        "0x9876543210FeDcba9876543210FEdCba98765432",
        "0xdEF1234567890AbcdEF1234567890aBcdEF12345",
        "false",
        "1714521600"
      ],
      "transaction": {
        "from": "0xf39fd6e51aad88f6f4ce6ab8827279cfffb92266",
        "to": "0x34b40ba116d5dec75548a9e9a8f15411461e8c70",
        "gas": "0x36cbf",
        "value": "0x0",
        "input": "0xc5d0cedb00000000000000000000000000000000000000000000000000000000000004b000000000000000000000000000000000000000000000000000000000000000c00000000000000000000000009876543210fedcba9876543210fedcba98765432000000000000000000000000def1234567890abcdef1234567890abcdef12345000000000000000000000000000000000000000000000000000000000000000000000000000000000000000000000000000000000000000000000000663186000000000000000000000000000000000000000000000000000000000000000012467265656c616e636572205061796d656e740000000000000000000000000000",
        "nonce": "0x78",
        "chainId": "0x221"
      },
      "additionalContracts": [],
      "isFixedGasLimit": false
    },
    {
      "hash": null,
      "transactionType": "CALL",
      "contractName": "FinanceSystem",
      "contractAddress": "0x34b40ba116d5dec75548a9e9a8f15411461e8c70",
      "function": "addTransaction(uint256,string,address,address,bool,uint256)",
      "arguments": [
        "2500",
        "Product Sales",
        "0x1234567890AbcdEF1234567890aBcdef12345678",
        "0xabCDEF1234567890ABcDEF1234567890aBCDeF12",
        "true",
        "1717200000"
      ],
      "transaction": {
        "from": "0xf39fd6e51aad88f6f4ce6ab8827279cfffb92266",
        "to": "0x34b40ba116d5dec75548a9e9a8f15411461e8c70",
        "gas": "0x36c8c",
        "value": "0x0",
        "input": "0xc5d0cedb00000000000000000000000000000000000000000000000000000000000009c400000000000000000000000000000000000000000000000000000000000000c00000000000000000000000001234567890abcdef1234567890abcdef12345678000000000000000000000000abcdef1234567890abcdef1234567890abcdef12000000000000000000000000000000000000000000000000000000000000000100000000000000000000000000000000000000000000000000000000665a6480000000000000000000000000000000000000000000000000000000000000000d50726f647563742053616c657300000000000000000000000000000000000000",
        "nonce": "0x79",
        "chainId": "0x221"
      },
      "additionalContracts": [],
      "isFixedGasLimit": false
    },
    {
      "hash": null,
      "transactionType": "CALL",
      "contractName": "FinanceSystem",
      "contractAddress": "0x34b40ba116d5dec75548a9e9a8f15411461e8c70",
      "function": "addTransaction(uint256,string,address,address,bool,uint256)",
      "arguments": [
        "2500",
        "New Product Sales",
        "0x1234567890AbcdEF1234567890aBcdef12345678",
        "0xabCDEF1234567890ABcDEF1234567890aBCDeF12",
        "true",
        "17172001000"
      ],
      "transaction": {
        "from": "0xf39fd6e51aad88f6f4ce6ab8827279cfffb92266",
        "to": "0x34b40ba116d5dec75548a9e9a8f15411461e8c70",
        "gas": "0x36ce0",
        "value": "0x0",
        "input": "0xc5d0cedb00000000000000000000000000000000000000000000000000000000000009c400000000000000000000000000000000000000000000000000000000000000c00000000000000000000000001234567890abcdef1234567890abcdef12345678000000000000000000000000abcdef1234567890abcdef1234567890abcdef12000000000000000000000000000000000000000000000000000000000000000100000000000000000000000000000000000000000000000000000003ff87f0e800000000000000000000000000000000000000000000000000000000000000114e65772050726f647563742053616c6573000000000000000000000000000000",
        "nonce": "0x7a",
        "chainId": "0x221"
      },
      "additionalContracts": [],
      "isFixedGasLimit": false
    },
    {
      "hash": null,
      "transactionType": "CALL",
      "contractName": "FinanceSystem",
      "contractAddress": "0x34b40ba116d5dec75548a9e9a8f15411461e8c70",
      "function": "addTransaction(uint256,string,address,address,bool,uint256)",
      "arguments": [
        "3000",
        "Consultation Fees",
        "0x9876543210FeDcba9876543210FEdCba98765432",
        "0xfEdcBA9876543210FedCBa9876543210fEdCBa98",
        "true",
        "1719792000"
      ],
      "transaction": {
        "from": "0xf39fd6e51aad88f6f4ce6ab8827279cfffb92266",
        "to": "0x34b40ba116d5dec75548a9e9a8f15411461e8c70",
        "gas": "0x36ccf",
        "value": "0x0",
        "input": "0xc5d0cedb0000000000000000000000000000000000000000000000000000000000000bb800000000000000000000000000000000000000000000000000000000000000c00000000000000000000000009876543210fedcba9876543210fedcba98765432000000000000000000000000fedcba9876543210fedcba9876543210fedcba980000000000000000000000000000000000000000000000000000000000000001000000000000000000000000000000000000000000000000000000006681f1800000000000000000000000000000000000000000000000000000000000000011436f6e73756c746174696f6e2046656573000000000000000000000000000000",
        "nonce": "0x7b",
        "chainId": "0x221"
      },
      "additionalContracts": [],
      "isFixedGasLimit": false
    },
    {
      "hash": null,
      "transactionType": "CALL",
      "contractName": "FinanceSystem",
      "contractAddress": "0x34b40ba116d5dec75548a9e9a8f15411461e8c70",
      "function": "addTransaction(uint256,string,address,address,bool,uint256)",
      "arguments": [
        "500",
        "Office Supplies",
        "0xdEF1234567890AbcdEF1234567890aBcdEF12345",
        "0x6543210fedcBA9876543210Fedcba9876543210f",
        "false",
        "1722470400"
      ],
      "transaction": {
        "from": "0xf39fd6e51aad88f6f4ce6ab8827279cfffb92266",
        "to": "0x34b40ba116d5dec75548a9e9a8f15411461e8c70",
        "gas": "0x36c8c",
        "value": "0x0",
        "input": "0xc5d0cedb00000000000000000000000000000000000000000000000000000000000001f400000000000000000000000000000000000000000000000000000000000000c0000000000000000000000000def1234567890abcdef1234567890abcdef123450000000000000000000000006543210fedcba9876543210fedcba9876543210f00000000000000000000000000000000000000000000000000000000000000000000000000000000000000000000000000000000000000000000000066aad000000000000000000000000000000000000000000000000000000000000000000f4f666669636520537570706c6965730000000000000000000000000000000000",
        "nonce": "0x7c",
        "chainId": "0x221"
      },
      "additionalContracts": [],
      "isFixedGasLimit": false
    },
    {
      "hash": null,
      "transactionType": "CALL",
      "contractName": "FinanceSystem",
      "contractAddress": "0x34b40ba116d5dec75548a9e9a8f15411461e8c70",
      "function": "addTransaction(uint256,string,address,address,bool,uint256)",
      "arguments": [
        "800",
        "Utility Bill Payment",
        "0x876543210AbcdeF9876543210abCdeF987654321",
        "0x9876543210FeDcba9876543210FEdCba98765432",
        "false",
        "1725148800"
      ],
      "transaction": {
        "from": "0xf39fd6e51aad88f6f4ce6ab8827279cfffb92266",
        "to": "0x34b40ba116d5dec75548a9e9a8f15411461e8c70",
        "gas": "0x36cf1",
        "value": "0x0",
        "input": "0xc5d0cedb000000000000000000000000000000000000000000000000000000000000032000000000000000000000000000000000000000000000000000000000000000c0000000000000000000000000876543210abcdef9876543210abcdef9876543210000000000000000000000009876543210fedcba9876543210fedcba9876543200000000000000000000000000000000000000000000000000000000000000000000000000000000000000000000000000000000000000000000000066d3ae8000000000000000000000000000000000000000000000000000000000000000145574696c6974792042696c6c205061796d656e74000000000000000000000000",
        "nonce": "0x7d",
        "chainId": "0x221"
      },
      "additionalContracts": [],
      "isFixedGasLimit": false
    },
    {
      "hash": null,
      "transactionType": "CALL",
      "contractName": "FinanceSystem",
      "contractAddress": "0x34b40ba116d5dec75548a9e9a8f15411461e8c70",
      "function": "addTransaction(uint256,string,address,address,bool,uint256)",
      "arguments": [
        "1800",
        "Received from Partner",
        "0x1234567890AbcdEF1234567890aBcdef12345678",
        "0xdEF1234567890AbcdEF1234567890aBcdEF12345",
        "true",
        "1727740800"
      ],
      "transaction": {
        "from": "0xf39fd6e51aad88f6f4ce6ab8827279cfffb92266",
        "to": "0x34b40ba116d5dec75548a9e9a8f15411461e8c70",
        "gas": "0x36d11",
        "value": "0x0",
        "input": "0xc5d0cedb000000000000000000000000000000000000000000000000000000000000070800000000000000000000000000000000000000000000000000000000000000c00000000000000000000000001234567890abcdef1234567890abcdef12345678000000000000000000000000def1234567890abcdef1234567890abcdef1234500000000000000000000000000000000000000000000000000000000000000010000000000000000000000000000000000000000000000000000000066fb3b80000000000000000000000000000000000000000000000000000000000000001552656365697665642066726f6d20506172746e65720000000000000000000000",
        "nonce": "0x7e",
        "chainId": "0x221"
      },
      "additionalContracts": [],
      "isFixedGasLimit": false
    },
    {
      "hash": null,
      "transactionType": "CALL",
      "contractName": "FinanceSystem",
      "contractAddress": "0x34b40ba116d5dec75548a9e9a8f15411461e8c70",
      "function": "addTransaction(uint256,string,address,address,bool,uint256)",
      "arguments": [
        "700",
        "Advertising Payment",
        "0xfEdcBA9876543210FedCBa9876543210fEdCBa98",
        "0x1234567890AbcdEF1234567890aBcdef12345678",
        "false",
        "1730419200"
      ],
      "transaction": {
        "from": "0xf39fd6e51aad88f6f4ce6ab8827279cfffb92266",
        "to": "0x34b40ba116d5dec75548a9e9a8f15411461e8c70",
        "gas": "0x36ccf",
        "value": "0x0",
        "input": "0xc5d0cedb00000000000000000000000000000000000000000000000000000000000002bc00000000000000000000000000000000000000000000000000000000000000c0000000000000000000000000fedcba9876543210fedcba9876543210fedcba980000000000000000000000001234567890abcdef1234567890abcdef1234567800000000000000000000000000000000000000000000000000000000000000000000000000000000000000000000000000000000000000000000000067241a0000000000000000000000000000000000000000000000000000000000000000134164766572746973696e67205061796d656e7400000000000000000000000000",
        "nonce": "0x7f",
        "chainId": "0x221"
      },
      "additionalContracts": [],
      "isFixedGasLimit": false
    },
    {
      "hash": null,
      "transactionType": "CALL",
      "contractName": "FinanceSystem",
      "contractAddress": "0x34b40ba116d5dec75548a9e9a8f15411461e8c70",
      "function": "addTransaction(uint256,string,address,address,bool,uint256)",
      "arguments": [
        "900",
        "Web Development Contract",
        "0x9876543210FeDcba9876543210FEdCba98765432",
        "0xabCDEF1234567890ABcDEF1234567890aBCDeF12",
        "true",
        "1704153600"
      ],
      "transaction": {
        "from": "0xf39fd6e51aad88f6f4ce6ab8827279cfffb92266",
        "to": "0x34b40ba116d5dec75548a9e9a8f15411461e8c70",
        "gas": "0x36d33",
        "value": "0x0",
        "input": "0xc5d0cedb000000000000000000000000000000000000000000000000000000000000038400000000000000000000000000000000000000000000000000000000000000c00000000000000000000000009876543210fedcba9876543210fedcba98765432000000000000000000000000abcdef1234567890abcdef1234567890abcdef1200000000000000000000000000000000000000000000000000000000000000010000000000000000000000000000000000000000000000000000000065935200000000000000000000000000000000000000000000000000000000000000001857656220446576656c6f706d656e7420436f6e74726163740000000000000000",
        "nonce": "0x80",
        "chainId": "0x221"
      },
      "additionalContracts": [],
      "isFixedGasLimit": false
    },
    {
      "hash": null,
      "transactionType": "CALL",
      "contractName": "FinanceSystem",
      "contractAddress": "0x34b40ba116d5dec75548a9e9a8f15411461e8c70",
      "function": "addTransaction(uint256,string,address,address,bool,uint256)",
      "arguments": [
        "2200",
        "Partner Commission",
        "0x1234567890AbcdEF1234567890aBcdef12345678",
        "0xfEdcBA9876543210FedCBa9876543210fEdCBa98",
        "true",
        "1706832000"
      ],
      "transaction": {
        "from": "0xf39fd6e51aad88f6f4ce6ab8827279cfffb92266",
        "to": "0x34b40ba116d5dec75548a9e9a8f15411461e8c70",
        "gas": "0x36ce0",
        "value": "0x0",
        "input": "0xc5d0cedb000000000000000000000000000000000000000000000000000000000000089800000000000000000000000000000000000000000000000000000000000000c00000000000000000000000001234567890abcdef1234567890abcdef12345678000000000000000000000000fedcba9876543210fedcba9876543210fedcba9800000000000000000000000000000000000000000000000000000000000000010000000000000000000000000000000000000000000000000000000065bc30800000000000000000000000000000000000000000000000000000000000000012506172746e657220436f6d6d697373696f6e0000000000000000000000000000",
        "nonce": "0x81",
        "chainId": "0x221"
      },
      "additionalContracts": [],
      "isFixedGasLimit": false
    },
    {
      "hash": null,
      "transactionType": "CALL",
      "contractName": "FinanceSystem",
      "contractAddress": "0x34b40ba116d5dec75548a9e9a8f15411461e8c70",
      "function": "addTransaction(uint256,string,address,address,bool,uint256)",
      "arguments": [
        "400",
        "IT Services Payment",
        "0xdEF1234567890AbcdEF1234567890aBcdEF12345",
        "0x9876543210FeDcba9876543210FEdCba98765432",
        "false",
        "1709337600"
      ],
      "transaction": {
        "from": "0xf39fd6e51aad88f6f4ce6ab8827279cfffb92266",
        "to": "0x34b40ba116d5dec75548a9e9a8f15411461e8c70",
        "gas": "0x36ccf",
        "value": "0x0",
        "input": "0xc5d0cedb000000000000000000000000000000000000000000000000000000000000019000000000000000000000000000000000000000000000000000000000000000c0000000000000000000000000def1234567890abcdef1234567890abcdef123450000000000000000000000009876543210fedcba9876543210fedcba9876543200000000000000000000000000000000000000000000000000000000000000000000000000000000000000000000000000000000000000000000000065e26c0000000000000000000000000000000000000000000000000000000000000000134954205365727669636573205061796d656e7400000000000000000000000000",
        "nonce": "0x82",
        "chainId": "0x221"
      },
      "additionalContracts": [],
      "isFixedGasLimit": false
    },
    {
      "hash": null,
      "transactionType": "CALL",
      "contractName": "FinanceSystem",
      "contractAddress": "0x34b40ba116d5dec75548a9e9a8f15411461e8c70",
      "function": "addTransaction(uint256,string,address,address,bool,uint256)",
      "arguments": [
        "1600",
        "Maintenance Fees",
        "0xabCDEF1234567890ABcDEF1234567890aBCDeF12",
        "0xfEdcBA9876543210FedCBa9876543210fEdCBa98",
        "true",
        "1712016000"
      ],
      "transaction": {
        "from": "0xf39fd6e51aad88f6f4ce6ab8827279cfffb92266",
        "to": "0x34b40ba116d5dec75548a9e9a8f15411461e8c70",
        "gas": "0x36cbf",
        "value": "0x0",
        "input": "0xc5d0cedb000000000000000000000000000000000000000000000000000000000000064000000000000000000000000000000000000000000000000000000000000000c0000000000000000000000000abcdef1234567890abcdef1234567890abcdef12000000000000000000000000fedcba9876543210fedcba9876543210fedcba98000000000000000000000000000000000000000000000000000000000000000100000000000000000000000000000000000000000000000000000000660b4a8000000000000000000000000000000000000000000000000000000000000000104d61696e74656e616e6365204665657300000000000000000000000000000000",
        "nonce": "0x83",
        "chainId": "0x221"
      },
      "additionalContracts": [],
      "isFixedGasLimit": false
    },
    {
      "hash": null,
      "transactionType": "CALL",
      "contractName": "FinanceSystem",
      "contractAddress": "0x34b40ba116d5dec75548a9e9a8f15411461e8c70",
      "function": "addTransaction(uint256,string,address,address,bool,uint256)",
      "arguments": [
        "300",
        "Food Supplies",
        "0x1234567890AbcdEF1234567890aBcdef12345678",
        "0xdEF1234567890AbcdEF1234567890aBcdEF12345",
        "false",
        "1714608000"
      ],
      "transaction": {
        "from": "0xf39fd6e51aad88f6f4ce6ab8827279cfffb92266",
        "to": "0x34b40ba116d5dec75548a9e9a8f15411461e8c70",
        "gas": "0x36c7d",
        "value": "0x0",
        "input": "0xc5d0cedb000000000000000000000000000000000000000000000000000000000000012c00000000000000000000000000000000000000000000000000000000000000c00000000000000000000000001234567890abcdef1234567890abcdef12345678000000000000000000000000def1234567890abcdef1234567890abcdef123450000000000000000000000000000000000000000000000000000000000000000000000000000000000000000000000000000000000000000000000006632d780000000000000000000000000000000000000000000000000000000000000000d466f6f6420537570706c69657300000000000000000000000000000000000000",
        "nonce": "0x84",
        "chainId": "0x221"
      },
      "additionalContracts": [],
      "isFixedGasLimit": false
    },
    {
      "hash": null,
      "transactionType": "CALL",
      "contractName": "FinanceSystem",
      "contractAddress": "0x34b40ba116d5dec75548a9e9a8f15411461e8c70",
      "function": "addTransaction(uint256,string,address,address,bool,uint256)",
      "arguments": [
        "700",
        "Travel Expenses",
        "0x9876543210FeDcba9876543210FEdCba98765432",
        "0xabCDEF1234567890ABcDEF1234567890aBCDeF12",
        "false",
        "1717286400"
      ],
      "transaction": {
        "from": "0xf39fd6e51aad88f6f4ce6ab8827279cfffb92266",
        "to": "0x34b40ba116d5dec75548a9e9a8f15411461e8c70",
        "gas": "0x36c8c",
        "value": "0x0",
        "input": "0xc5d0cedb00000000000000000000000000000000000000000000000000000000000002bc00000000000000000000000000000000000000000000000000000000000000c00000000000000000000000009876543210fedcba9876543210fedcba98765432000000000000000000000000abcdef1234567890abcdef1234567890abcdef12000000000000000000000000000000000000000000000000000000000000000000000000000000000000000000000000000000000000000000000000665bb600000000000000000000000000000000000000000000000000000000000000000f54726176656c20457870656e7365730000000000000000000000000000000000",
        "nonce": "0x85",
        "chainId": "0x221"
      },
      "additionalContracts": [],
      "isFixedGasLimit": false
    },
    {
      "hash": null,
      "transactionType": "CALL",
      "contractName": "FinanceSystem",
      "contractAddress": "0x34b40ba116d5dec75548a9e9a8f15411461e8c70",
      "function": "addTransaction(uint256,string,address,address,bool,uint256)",
      "arguments": [
        "2100",
        "Annual Bonus Payment",
        "0xabCDEF1234567890ABcDEF1234567890aBCDeF12",
        "0x9876543210FeDcba9876543210FEdCba98765432",
        "true",
        "1719878400"
      ],
      "transaction": {
        "from": "0xf39fd6e51aad88f6f4ce6ab8827279cfffb92266",
        "to": "0x34b40ba116d5dec75548a9e9a8f15411461e8c70",
        "gas": "0x36cf1",
        "value": "0x0",
        "input": "0xc5d0cedb000000000000000000000000000000000000000000000000000000000000083400000000000000000000000000000000000000000000000000000000000000c0000000000000000000000000abcdef1234567890abcdef1234567890abcdef120000000000000000000000009876543210fedcba9876543210fedcba98765432000000000000000000000000000000000000000000000000000000000000000100000000000000000000000000000000000000000000000000000000668343000000000000000000000000000000000000000000000000000000000000000014416e6e75616c20426f6e7573205061796d656e74000000000000000000000000",
        "nonce": "0x86",
        "chainId": "0x221"
      },
      "additionalContracts": [],
      "isFixedGasLimit": false
    },
    {
      "hash": null,
      "transactionType": "CALL",
      "contractName": "FinanceSystem",
      "contractAddress": "0x34b40ba116d5dec75548a9e9a8f15411461e8c70",
      "function": "addTransaction(uint256,string,address,address,bool,uint256)",
      "arguments": [
        "650",
        "Support Payment",
        "0x9876543210FeDcba9876543210FEdCba98765432",
        "0xabCDEF1234567890ABcDEF1234567890aBCDeF12",
        "false",
        "1722556800"
      ],
      "transaction": {
        "from": "0xf39fd6e51aad88f6f4ce6ab8827279cfffb92266",
        "to": "0x34b40ba116d5dec75548a9e9a8f15411461e8c70",
        "gas": "0x36c9d",
        "value": "0x0",
        "input": "0xc5d0cedb000000000000000000000000000000000000000000000000000000000000028a00000000000000000000000000000000000000000000000000000000000000c00000000000000000000000009876543210fedcba9876543210fedcba98765432000000000000000000000000abcdef1234567890abcdef1234567890abcdef1200000000000000000000000000000000000000000000000000000000000000000000000000000000000000000000000000000000000000000000000066ac2180000000000000000000000000000000000000000000000000000000000000000f537570706f7274205061796d656e740000000000000000000000000000000000",
        "nonce": "0x87",
        "chainId": "0x221"
      },
      "additionalContracts": [],
      "isFixedGasLimit": false
    }
  ],
  "receipts": [],
  "libraries": [],
  "pending": [],
  "returns": {
    "0": {
      "internal_type": "contract FinanceSystem",
      "value": "0x34B40BA116d5Dec75548a9e9A8f15411461E8c70"
    }
  },
  "timestamp": 1735557365,
  "chain": 545,
  "commit": "61fa5ae"
}